:100000000C94F2000C941A010C941A010C941A012D
:100010000C941A010C941A010C941A010C941A01F4
:100020000C941A010C941A010C941A010C941A01E4
:100030000C941A010C941A010C941A010C941A01D4
:100040000C94F7020C941A010C9434020C940E02D6
:100050000C941A010C941A010C941A010C941A01B4
:100060000C941A010C941A01FF09650A3C09CE0A86
:10007000240B2309D70BD70BD70BD70BD70BD70BD9
:10008000D70BD70B540B9609005EBCE2613FDD83B2
:10009000C29C7E20A3FD1F419DC3217FFCA2401E68
:1000A0005F01E3BD3E6082DC237D9FC1421CFEA058
:1000B000E1BF5D0380DE3C62BEE0025CDF81633D48
:1000C0007C22C09E1D43A1FF4618FAA427799BC538
:1000D00084DA3866E5BB5907DB856739BAE4065828
:1000E0001947A5FB7826C49A653BD987045AB8E618
:1000F000A7F91B45C6987A24F8A6441A99C7257B08
:100100003A6486D85B05E7B98CD2306EEDB3510FF7
:100110004E10F2AC2F7193CD114FADF3702ECC92E7
:10012000D38D6F31B2EC0E50AFF1134DCE90722CD7
:100130006D33D18F0C52B0EE326C8ED0530DEFB1C7
:10014000F0AE4C1291CF2D73CA947628ABF51749B7
:100150000856B4EA6937D58B5709EBB536688AD4A7
:1001600095CB2977F4AA4816E9B7550B88D6346A97
:100170002B7597C94A14F6A8742AC896154BA9F787
:10018000B6E80A54D7896B35000000080002010068
:100190000003040700000000000000000000000051
:1001A000250028002B0000000000240027002A0062
:1001B00000000000230026002900040404040404B5
:1001C0000404020202020202030303030303010206
:1001D00004081020408001020408102001020408D5
:1001E0001020E20C11241FBECFEFD8E0DEBFCDBF40
:1001F00013E0A0E0B1E0E8E3F0E202C005900D9268
:10020000AC31B107D9F723E0ACE1B3E001C01D92F6
:10021000AE3FB207E1F710E0C2EFD0E004C0219793
:10022000FE010E949D0DC13FD107C9F70E948506BE
:100230000C941A100C940000FC01918D828D98177B
:1002400061F0828DDF01A80FB11D5D968C91928DBA
:100250009F5F9F73928F90E008958FEF9FEF0895B7
:10026000FC01918D828D981731F0828DE80FF11D80
:10027000858D90E008958FEF9FEF0895FC01918D9B
:10028000228D892F90E0805C9F4F821B91098F7394
:100290009927089585E293E00E943E0121E0892B91
:1002A00009F420E0822F0895FC01848DDF01A80F5E
:1002B000B11DA35ABF4F2C91848D90E001968F738E
:1002C0009927848FA689B7892C93A089B1898C91AD
:1002D00080648C93938D848D981306C00288F38973
:1002E000E02D80818F7D80830895EF92FF920F93A0
:1002F0001F93CF93DF93EC0181E0888F9B8D8C8DD2
:10030000981305C0E889F989808185FD24C0F62EFF
:100310000B8D10E00F5F1F4F0F731127E02E8C8D98
:10032000E8120CC00FB607FCFACFE889F989808182
:1003300085FFF5CFCE010E945401F1CF8B8DFE01D8
:10034000E80FF11DE35AFF4FF0820B8FEA89FB891A
:100350008081806207C0EE89FF896083E889F9891E
:1003600080818064808381E090E0DF91CF911F9154
:100370000F91FF90EF900895CF93DF93EC01888D5C
:100380008823C9F0EA89FB89808185FD05C0A88999
:10039000B9898C9186FD0FC00FB607FCF5CF80811F
:1003A00085FFF2CFA889B9898C9185FFEDCFCE0169
:1003B0000E945401E7CFDF91CF91089580E090E053
:1003C000892B29F00E944A0181110C9400000895A4
:1003D0003FB7F8948091210390912203A0912303C9
:1003E000B091240326B5A89B05C02F3F19F00196B4
:1003F000A11DB11D3FBFBA2FA92F982F8827820FAB
:10040000911DA11DB11DBC01CD0142E0660F771FFA
:10041000881F991F4A95D1F7089508951F920F924A
:100420000FB60F9211242F933F934F935F936F93C7
:100430007F938F939F93AF93BF93EF93FF9385E247
:1004400093E00E945401FF91EF91BF91AF919F9172
:100450008F917F916F915F914F913F912F910F906D
:100460000FBE0F901F9018951F920F920FB60F920C
:1004700011242F938F939F93EF93FF93E091350374
:10048000F09136038081E0913B03F0913C0382FDC3
:1004900012C0908180913E038F5F8F7320913F0344
:1004A000821751F0E0913E03F0E0EB5DFC4F958F39
:1004B00080933E0301C08081FF91EF919F918F91C6
:1004C0002F910F900FBE0F901F90189590E0FC0198
:1004D000E857FE4F3491FC01E253FE4F2491FC019A
:1004E000E654FE4FE491EE2309F43BC0332339F187
:1004F000333091F038F43130A9F0323001F584B561
:100500008F7D12C0373091F03830A1F03430B9F41B
:10051000809180008F7D03C0809180008F778093D1
:1005200080000DC084B58F7784BD09C08091B00074
:100530008F7703C08091B0008F7D8093B000F0E092
:10054000EE0FFF1FE456FE4FA591B4918FB7F894BC
:10055000EC91611103C020952E2301C02E2B2C930A
:100560008FBF08958230910538F0880F991F880F4A
:10057000991F05970197F1F708958F929F92AF9277
:10058000BF92CF92DF92EF92FF926B017C010E94AB
:10059000E8014B015C01C114D104E104F104F1F064
:1005A0000E94E801DC01CB0188199909AA09BB095D
:1005B000883E9340A105B10570F321E0C21AD1082D
:1005C000E108F10888EE880E83E0981EA11CB11C9A
:1005D000C114D104E104F10419F7DDCFFF90EF90CD
:1005E000DF90CF90BF90AF909F908F9008951F9213
:1005F0000F920FB60F9211242F933F938F939F93D7
:10060000AF93BF9380911C0390911D03A0911E0393
:10061000B0911F033091200323E0230F2D3720F4E6
:100620000196A11DB11D05C026E8230F0296A11D4C
:10063000B11D2093200380931C0390931D03A0936E
:100640001E03B0931F038091210390912203A09178
:100650002303B09124030196A11DB11D80932103B2
:1006600090932203A0932303B0932403BF91AF91EF
:100670009F918F913F912F910F900FBE0F901F90E0
:100680001895DC01E0E0615038F08D91E827F0E04A
:10069000E857FF4FE491F7CF8E2F0895FC0190812A
:1006A0000180F281E02DF8948181892B8183228160
:1006B000892F809528232283A7E0B0E01197F1F7D6
:1006C000218182238183A3E2B0E01197F1F7808139
:1006D0007894EFECF0E03197F1F7982381E009F49A
:1006E00080E00895FC0190810180F281E02D892F46
:1006F000809560FF12C0F8942281822382838181D9
:10070000892B8183A3E2B0E01197F1F78281982BC6
:100710009283789487ED90E011C0F894228182232F
:1007200082838181892B8183AFEFB0E01197F1F74C
:100730008281982B928378948FE090E00197F1F773
:100740000895CF92DF92EF92FF920F931F93CF9372
:10075000DF931F92CDB7DEB76C01E62E08E010E004
:10076000FF24F39461E08F2D8E2109F460E0C6012F
:1007700049830E947203FF0C015011094981011540
:10078000110581F7411115C0F894D6011196ED912C
:10079000FC91129791818C91809589238183119688
:1007A000ED91FC91129792818C918095892382839F
:1007B00078940F90DF91CF911F910F91FF90EF9060
:1007C000DF90CF900895CF92DF92EF92FF920F9338
:1007D0001F93CF93DF931F92CDB7DEB78C01F62E18
:1007E00040E065E579830E94A103CF2C7981D72E63
:1007F000760188E0E80EF11CF60161916F0140E09E
:10080000C8010E94A103CE14DF04B1F70F90DF915D
:10081000CF911F910F91FF90EF90DF90CF900895AF
:10082000FC0190810180F281E02DF8948181292FD3
:1008300020958223818378948DE743E050E08150B6
:1008400021F1DA011197F1F730813923C1F3F894DE
:100850008281822382838181892B81837894ABE793
:10086000B7E01197F1F7F894818128232183A3E160
:10087000B1E01197F1F78081982381E009F080E0E1
:100880007894E3E6F6E03197F1F70895DC01ED9115
:10089000FC91309749F0808191818617970739F054
:1008A0000480F581E02DF5CF80E090E00895CF0140
:1008B0000895CF92DF92EF92FF920F931F93CF9301
:1008C000DF936C017A018B01C0E0D0E0CE15DF052B
:1008D00089F0D8016D918D01D601ED91FC910190C7
:1008E000F081E02DC6010995892B11F47E0102C02B
:1008F0002196ECCFC701DF91CF911F910F91FF900F
:10090000EF90DF90CF900895AF92BF92CF92DF9299
:10091000EF92FF920F931F93CF93DF938B01BC0154
:100920008091DE039091DF030E94E30340E06EEBD1
:100930008091DE039091DF030E94A103E80168012A
:1009400089E0C80ED11CA090DE03B090DF0388E0E0
:10095000E82EF12C01E010E0C5010E944E03811148
:10096000102B000F81E0E81AF108B1F71993CC15AC
:10097000DD0549F78091DE039091DF030E941004AA
:1009800091E0813009F090E0892FDF91CF911F91A4
:100990000F91FF90EF90DF90CF90BF90AF900895B0
:1009A0000E941510AF92BF92CF92DF92EF92FF920A
:1009B0000F931F93CF93DF931F92CDB7DEB75C01E8
:1009C000D62EE72EFC018585811105C0C5010E9448
:1009D0001004811106C0F50113861586148680E087
:1009E00065C040E060EFC5010E94A10301E0F12C69
:1009F000C12C11E0C5010E944E03682FC501698317
:100A00000E944E036981613019F48130B9F433C01A
:100A10004F2D50E068131BC0F5018385181730F483
:100A2000E40FF51F8381802349F402C0181731F0C9
:100A300060E0193058F4F501148708C0F501EF0D96
:100A4000F11D8381802B838361E009C0C12EF501F4
:100A5000E40FF51F9381802F809589238383C5013F
:100A60000E9472031F5F000F11F4F39401E0F7E09E
:100A7000FF1508F0BFCF113408F4ADCFF501C386E0
:100A8000C11002C081E08587F5018381882309F4C4
:100A9000A2CFD5011396ED2DFE2D9501255F3F4F79
:100AA0008D918193A217B307D9F781E00F90DF9161
:100AB000CF911F910F91FF90EF90DF90CF90BF905B
:100AC000AF9008950F931F93CF93DF93CDB7DEB709
:100AD00029970FB6F894DEBF0FBECDBFFC01208171
:100AE000203161F18C018091DE039091DF030E943F
:100AF0001004882309F1BE016F5F7F4FC8010E9477
:100B000084048823C9F068E0CE0101960E94410365
:100B10009985891311C08D818F3361F020F48F3155
:100B200059F489E00CC08F3519F08F3739F004C0C3
:100B30008BE005C08AE003C080E001C08CE029960C
:100B40000FB6F894DEBF0FBECDBFDF91CF911F91DE
:100B50000F9108950F931F93CF93DF93CDB7DEB717
:100B600061970FB6F894DEBF0FBECDBF082FE0919E
:100B7000DE03F091DF03138615861486DF011B96D2
:100B800033961E92AE17BF07E1F710E0BE01665F15
:100B90007F4F8091DE039091DF030E94D20488236F
:100BA00069F0101308C067E0CE010A960E94410365
:100BB0009989891741F01F5F011740F760E070E0E5
:100BC0008EEF92EC59C08091DE039091DF030E947A
:100BD00010048823F1F1BE016F5F7F4FCE010A96AA
:100BE0000E9484048823A9F168E0CE0101960E9446
:100BF0004103998589132DC0698148E0649FB00144
:100C000011248A81282F30E0322F2227330F330F0F
:100C1000330F262B372B8A858031C9F4688570E025
:100C20008F81AB01481B5109CA019695982F8827DF
:100C3000979587950E94890D60517109207F53E037
:100C4000220F331F5A95E1F7620F731F04C0B901D9
:100C500002C060E874EE613854EE75070CF4AECF54
:100C6000072E000C880B990B0E94EF0D20E030E05E
:100C700040E05CE30E94530E61960FB6F894DEBF2D
:100C80000FBECDBFDF91CF911F910F910895EF92CD
:100C9000FF921F93CF93DF931F92CDB7DEB7182F2C
:100CA00082ECE82E83E0F82ED70114968D919C916A
:100CB000159769830E947D0F82E0F701868382E0A9
:100CC00090E00E94E80EFC01D70115969C938E934C
:100CD0001497105810836981618383E017968C9371
:100CE0000F90DF91CF911F91FF90EF900895BC017D
:100CF00082EC93E00E944604009721F0FC0182817F
:100D00009381089580E090E00895CF93DF93CDB76D
:100D1000DEB729970FB6F894DEBF0FBECDBF78942B
:100D200084B5826084BD84B5816084BD85B58260F0
:100D300085BD85B5816085BD80916E0081608093A1
:100D40006E0010928100809181008260809381000A
:100D5000809181008160809381008091800081601A
:100D6000809380008091B10084608093B100809175
:100D7000B00081608093B00080917A00846080939D
:100D80007A0080917A00826080937A0080917A0064
:100D9000816080937A0080917A00806880937A00E5
:100DA0001092C10085E293E09093CB038093CA0335
:100DB0008FEF9FEF9093D3038093D203E09135039D
:100DC000F091360382E08083E0913103F0913203A9
:100DD0001082E0913303F091340387E68083109210
:100DE0003D03E0913903F0913A0386E08083E0917E
:100DF0003703F0913803808180618083E09137036D
:100E0000F0913803808188608083E0913703F0910E
:100E10003803808180688083E0913703F091380344
:100E200080818F7D808360ED77E080E090E00E949C
:100E3000BD028DE093E09093D5038093D4038EE1BF
:100E400097E09093D7038093D6038AE08093D803EA
:100E500086E090E00E94E80EFC0185E995E7918329
:100E6000808313821282158214828091C203909132
:100E7000C303892B29F4F093C303E093C20308C092
:100E8000A091C403B091C5031596FC93EE931497FB
:100E9000F093C503E093C40386E090E00E94E80E5F
:100EA000FC0186E995E79183808313821282158283
:100EB00014828091C2039091C303892B29F4F0938B
:100EC000C303E093C20308C0A091C403B091C5035B
:100ED0001596FC93EE931497F093C503E093C40327
:100EE000E091DE03F091DF03138615861486DF019F
:100EF0001B9633961E92AE17BF07E1F71092DD03E3
:100F000011E0BE016F5F7F4F8091DE039091DF03A0
:100F10000E94D204882309F44AC067E0CE010196FA
:100F20000E94410398858913ECCF8091D9038111E8
:100F300027C08091DE039091DF030E941004BE0160
:100F40006F5F7F4F8091DE039091DF030E94E30388
:100F500040E064EB8091DE039091DF030E94A103E7
:100F60008091DE039091DF030E944E03082F809151
:100F7000DE039091DF030E941004002309F41AC1DC
:100F80000091DA03CE0101960E946205801718F4E1
:100F90008091DA0304C0CE0101960E94620580931D
:100FA000DA038091DD038F5F8093DD03AACF412CAC
:100FB000512C320143941092C8038091CA0390913E
:100FC000CB03DC01ED91FC910480F581E02D0995C6
:100FD0004091C803242F30E028173907A4F48091EA
:100FE000CA039091CB03DC01ED91FC910480F58163
:100FF000E02D09958093C8038091D4039091D50387
:101000000E94B202DACF442309F446C0C9010E940B
:10101000E80E9093C7038093C60310E02091C803A5
:10102000C090C603D090C703121788F4C10ED11C1C
:101030008091CA039091CB03DC01ED91FC91068075
:10104000F781E02D0995F60180831F5FE7CFD60178
:10105000BC91B987C601820F911DFC013297508166
:1010600031964081BF3F09F4A8C08091D803B813DE
:101070000BC0A3C0242F30E0F901F52B90E0962B94
:10108000E817F90709F4BCC08091C6039091C70323
:101090000E947D0F1092C8038091DE039091DF03C0
:1010A0000E94100440E06CEC8091DE039091DF031D
:1010B0000E94A1034091D90364E48091DE039091E2
:1010C000DF030E94A1038091DB03882309F449C058
:1010D000E091DA03E950E33040F4F0E0EE0FFF1F57
:1010E000EA5FFC4F6081718102C06EEE72E0809118
:1010F000DC03882381F18091D90381112CC08FB743
:10110000F89480901C0390901D03A0901E03B09053
:101110001F038FBF6B01770FEE08FF088091DE037E
:101120009091DF030E944E038130D9F02FB7F894DD
:1011300080911C0390911D03A0911E03B0911F0389
:101140002FBF8C199D09AE09BF0988159905AA05FD
:10115000BB0520F306C0072E000C880B990B0E94DC
:10116000BD0280E00E94AA050E94B70D6B017C01C0
:1011700065E975E782EC93E00E944604009719F058
:10118000FC01D382C28281E00E94AA050E94B70DB1
:101190006B017C0166E975E782EC93E00E944604EE
:1011A000009729F0DC011396DC92CE9212970E94F0
:1011B000DE0101CF1093D903E3CE9DEF920F16010C
:1011C000BFEF2B1A3B0AE985E095F0E0DF01AA5F4B
:1011D000BD4F6C916095EA5FFE4F8081F1019150A7
:1011E00008F448CF21916227262F30E0D901AA5F69
:1011F000BD4F6C916827D901AA5FBE4F8C91EFCF8C
:10120000D60111968C9111971296EC901297F12CB1
:10121000FE2CEE2413969C911397E92A14960C91B8
:10122000149710E0102F002715969C91092B482F3A
:1012300050E0FA013197E031F10508F0B8C2EC5CFA
:10124000FF4F0C949D0DBFEBEB1AB3E6FB0AB70101
:1012500082EC93E00E944604009709F4B3C2FC01BB
:1012600013830283C7010E9477068017910711F04C
:1012700064E0A9C282E057C0C80101978D3791058B
:1012800010F063E00CC0FFEBEF1AF3E6FF0AB701C2
:1012900082EC93E00E944604892B19F462E083E01B
:1012A00087C2C6010E947D0FC8010196D82EDD0CB1
:1012B000D092C8038D2D90E00E94E80E9093C70352
:1012C0008093C603009711F464E0E9CF23E0DC01CA
:1012D0002C93DA94DA941196DC9263E0A62EB12C6A
:1012E000C12CD12CC7018C0D9D1D0E947706BFEF2C
:1012F000CB1ADB0A9601220F331F4091C60350918F
:10130000C703FA01E20FF31F9083E091C603F09147
:10131000C703EA0DFB1D8083E2E0AE0EB11CC016D0
:10132000D10601F783E08093C90344C2D601169623
:101330008C919801215031092B37310578F490E0D8
:101340009801220F331F8217930741F4A12CB12C6F
:101350004701BFEB8B1AB3E69B0A08C063E023C0CA
:10136000EFEFAE1ABE0AA016B10659F0B4016A0D2D
:101370007B1D82EC93E00E944604892B89F762E092
:1013800012C0C6010E947D0FF5E0F093C80385E00E
:1013900090E00E94E80EFC019093C7038093C6037F
:1013A000892B19F464E080E103C280E18083F1823B
:1013B000E2821382048328E0C20ED11CE12CF12CBE
:1013C000F6013197A080B12CBA2CAA24D6018C91B9
:1013D000A82AB4016E0D7F1D82EC93E00E944604A2
:1013E000009719F0FC01B382A282FFEFEF1AFF0A07
:1013F00022E0C20ED11CE016F10611F793CFC8010E
:101400000197803D974010F063E02BC0B7016F5FFC
:101410007F4F82EC93E00E944604892B11F462E036
:1014200020C0C6010E947D0FC801B3E09695879544
:10143000BA95E1F7980127703327232B11F48E5FBB
:1014400001C08D5F8093C803D090C8038D2D90E0BC
:101450000E94E80E9093C7038093C603009719F487
:1014600064E081E0A5C121E0DC012C93DA94DA94F8
:101470001196DC920F5F1F4FCC24C394D12CB12C5A
:10148000C6018E0D9F1D0E9477064091C6035091A4
:10149000C7039601F3E036952795FA95E1F72E5F9D
:1014A0003F4F81159F4F09F090C1FA01E20FF31FE2
:1014B0002081D301C2010B2C04C0880F991FAA1FE1
:1014C000BB1F0A94D2F7822B90C1C8010197803DBF
:1014D000974010F063E02AC0B7016F5E784D82EC50
:1014E00093E00E944604892B09F499CFC6010E941B
:1014F0007D0FC801E3E096958795EA95E1F798019D
:1015000027703327232B11F48E5F01C08D5F8093EA
:10151000C803D090C8038D2D90E00E94E80E9093F0
:10152000C7038093C603009719F464E082E040C1CA
:1015300022E0DC012C93DA94DA941196DC920F5FAE
:101540001F4FB12CCC24C394D12CB0EFEB1AB8EDC3
:10155000FB0AC7018C0D9D1D0E9477064091C603B2
:101560005091C703960163E0369527956A95E1F798
:101570002E5F3F4F81159F4F09F045C1FA01E20FE1
:10158000F31F2081D301C2010B2C04C0880F991FC7
:10159000AA1FBB1F0A94D2F7822B45C1C80101972D
:1015A0008D37910510F063E020C03FECE31A3AE874
:1015B000F30AB70182EC93E00E944604892B09F4F8
:1015C0002ECFC6010E947D0FC8010196D82EDD0CDA
:1015D000D092C8038D2D90E00E94E80E9093C7032F
:1015E0008093C603009719F464E084E0E1C024E02E
:1015F000DC012C93DA94DA941196DC92C12CD12C74
:1016000053E0A52EB12CC7018C0D9D1D0E947706BD
:10161000BFEFCB1ADB0A9601220F331F4091C6039E
:101620005091C703FA01E20FF31F9083E091C603C4
:10163000F091C703EA0DFB1D8083E2E0AE0EB11C02
:10164000C016D10601F76ECE0115FFEF1F0729F076
:101650000115110511F063E0F5C0DD24D394012BD1
:1016600021F4D12C00E010E002C000E01FEF2FEFCA
:10167000E21AF20AB70182EC93E00E944604009756
:1016800009F4DFC0DC0113961C930E931297C70177
:101690000E94770621E081159F4F09F020E02D156B
:1016A00009F4E8CD64E0CEC0F6012681C80133E03C
:1016B000969587953A95E1F7A80147705527452BF0
:1016C00009F00196A80141505109403B574058F498
:1016D00030E02817390739F4A12CB12C47012FEF3E
:1016E000821A920A08C063E023C03FEFA31AB30A2C
:1016F000A016B10659F0B4016A0D7B1D82EC93E08F
:101700000E944604892B89F762E012C0C6010E943C
:101710007D0F65E06093C80385E090E00E94E80ECD
:10172000FC019093C7038093C603892B19F464E0EE
:101730008FE03EC08FE08083F182E282B382A48298
:101740008FEFA81AB80A912C01E010E0F80123E00D
:10175000F695E7952A95E1F7E20DF31D868190E075
:10176000092C02C0959587950A94E2F780FD03C085
:10177000C12CD12C03C0C12CDD24DA94B8016E0D2C
:101780007F1D82EC93E00E944604009729F0DC0163
:101790001396DC92CE9212979394B8E09B1201C0FC
:1017A000912C0F5F1F4F0A151B0581F6BBCD61E021
:1017B0000E94470629852F3F09F046C081E08093AB
:1017C000C90342C062E086E0F3CFFA01E20FF31FE3
:1017D000D301C2010B2C04C0880F991FAA1FBB1F85
:1017E0000A94D2F78095908189238083B394E8E0AE
:1017F000BE1201C0B12CFFEFCF1ADF0AC016D1060E
:1018000009F03ECE8FCDFA01E20FF31FD301C201E2
:101810000B2C04C0880F991FAA1FBB1F0A94D2F774
:101820008095908189238083B394F8E0BF1201C032
:10183000B12C2FEFC21AD20AC016D10609F089CEF8
:1018400071CD62E085E0B4CF8091C903833009F0A7
:1018500079C0E090C603F090C7038091D2039091C5
:10186000D30397FD09C061E00E94660261E070E069
:1018700080E090E00E94BD028091CA039091CB036A
:10188000DC01ED91FC910190F081E02D6091D80395
:10189000099510E09091C803191788F48091CA0344
:1018A0009091CB03DC01ED91FC91D701A10FB11D0B
:1018B0000190F081E02D6C9109951F5FEBCF209195
:1018C000D803209530E0F901EA5FFD4F80818095D3
:1018D000F901EA5FFE4F0081E091C603F091C70372
:1018E000915070F021918227282F30E0D901AA5F12
:1018F000BD4F8C918027D901AA5FBE4F0C91F0CFCC
:1019000010E0182B8091CA039091CB03DC01ED917C
:10191000FC910190F081E02D612F09958091CA031F
:101920009091CB03DC01ED91FC910190F081E02DD1
:10193000602F09958091CA039091CB03DC01ED9152
:10194000FC912CC0823009F09FCB0091C60310910E
:10195000C7038091D2039091D30397FD09C061E042
:101960000E94660261E070E080E090E00E94BD02AB
:10197000F12C2091C8038091CA039091CB03DC0124
:10198000ED91FC91F21650F4D801AF0DB11D01900C
:10199000F081E02D6C910995F394EBCF0284F385EF
:1019A000E02D09958091D6039091D7030E94B20251
:1019B0008091D2039091D30397FD66CB60E00E94A3
:1019C000660262CBCF93DF93109228031092270315
:1019D00088EE93E0A0E0B0E08093290390932A037F
:1019E000A0932B03B0932C0380E193E09093260304
:1019F0008093250385EC90E090933203809331032C
:101A000084EC90E0909334038093330380EC90E077
:101A1000909336038093350381EC90E090933803E4
:101A20008093370382EC90E090933A0380933903DC
:101A300086EC90E090933C0380933B0310923E032E
:101A400010923F031092400310924103E1EDF1E048
:101A50002491EDEBF1E084918823C1F090E0880FB0
:101A6000991FFC01EA55FE4FC591D491FC01E45643
:101A7000FE4FA591B4919FB7F8948881E22FE0952D
:101A80008E2388838C91E823EC939FBFE1EDF1E0F6
:101A9000E491E093EC03EDEBF1E0E491F0E0EE0F84
:101AA000FF1FE055FE4F859194919093EE03809334
:101AB000ED031092F7031092F9031092F803E7EF89
:101AC000F3E0129283E0EF3EF807D9F78DE092E061
:101AD0009093EB038093EA038CEE93E09093DF0303
:101AE0008093DE031092DD031092D90389E0809386
:101AF000DA0381E08093DB038093DC031092C3035D
:101B00001092C2031092C5031092C403DF91CF91CB
:101B1000089597FB072E16F4009407D077FD09D09F
:101B20000E94A30D07FC05D03EF4909581959F4F30
:101B30000895709561957F4F0895EE0FFF1F0590F2
:101B4000F491E02D0994AA1BBB1B51E107C0AA1F09
:101B5000BB1FA617B70710F0A61BB70B881F991F4E
:101B60005A95A9F780959095BC01CD0108950E94E2
:101B7000BE0D6894B1110C944D0E08950E94320E62
:101B800088F09F5798F0B92F9927B751B0F0E1F03E
:101B9000660F771F881F991F1AF0BA95C9F714C0EE
:101BA000B13091F00E944C0EB1E008950C944C0EAF
:101BB000672F782F8827B85F39F0B93FCCF3869527
:101BC00077956795B395D9F73EF490958095709584
:101BD00061957F4F8F4F9F4F0895E89409C097FB01
:101BE0003EF490958095709561957F4F8F4F9F4FF4
:101BF0009923A9F0F92F96E9BB279395F695879538
:101C000077956795B795F111F8CFFAF4BB0F11F4FA
:101C100060FF1BC06F5F7F4F8F4F9F4F16C08823A1
:101C200011F096E911C0772321F09EE8872F762FD7
:101C300005C0662371F096E8862F70E060E02AF018
:101C40009A95660F771F881FDAF7880F9695879504
:101C500097F9089557FD9058440F551F59F05F3F6D
:101C600071F04795880F97FB991F61F09F3F79F0BE
:101C700087950895121613061406551FF2CF469540
:101C8000F1DF08C0161617061806991FF1CF8695C2
:101C90007105610508940895E894BB2766277727A6
:101CA000CB0197F908950E94660E0C94D70E0E94FE
:101CB000C90E38F00E94D00E20F0952311F00C943C
:101CC000C00E0C94C60E11240C944D0E0E942A0EC8
:101CD00070F3959FC1F3950F50E0551F629FF0017F
:101CE000729FBB27F00DB11D639FAA27F00DB11D98
:101CF000AA1F649F6627B00DA11D661F829F222721
:101D0000B00DA11D621F739FB00DA11D621F839FA7
:101D1000A00D611D221F749F3327A00D611D231F7D
:101D2000849F600D211D822F762F6A2F11249F57CB
:101D300050409AF0F1F088234AF0EE0FFF1FBB1FCE
:101D4000661F771F881F91505040A9F79E3F51058D
:101D500080F00C94C00E0C944D0E5F3FE4F3983E5F
:101D6000D4F3869577956795B795F795E7959F5F37
:101D7000C1F7FE2B880F911D9695879597F90895C9
:101D800097F99F6780E870E060E008959FEF80EC2E
:101D9000089500240A9416161706180609060895D1
:101DA00000240A9412161306140605060895092E37
:101DB0000394000C11F4882352F0BB0F40F4BF2BA6
:101DC00011F460FF04C06F5F7F4F8F4F9F4F0895E6
:101DD000CF93DF938230910510F482E090E0E091A0
:101DE000FC03F091FD0320E030E0C0E0D0E030974C
:101DF00011F14081518148175907C0F04817590720
:101E000061F482819381209719F09B838A832BC090
:101E10009093FD038093FC0326C02115310519F032
:101E20004217530718F49A01BE01DF01EF01028047
:101E3000F381E02DDCCF2115310509F1281B390B89
:101E40002430310590F412968D919C911397611571
:101E5000710521F0FB019383828304C09093FD03FD
:101E60008093FC03FD01329644C0FD01E20FF31F95
:101E700081939193225031092D933C933AC0209144
:101E8000FA033091FB03232B41F42091020130919E
:101E900003013093FB032093FA032091000130915A
:101EA00001012115310541F42DB73EB740910401E0
:101EB00050910501241B350BE091FA03F091FB03CF
:101EC000E217F307A0F42E1B3F0B2817390778F011
:101ED000AC014E5F5F4F2417350748F04E0F5F1F70
:101EE0005093FB034093FA038193919302C0E0E087
:101EF000F0E0CF01DF91CF9108950F931F93CF931F
:101F0000DF93009709F48CC0FC0132971382128290
:101F10000091FC031091FD030115110581F420814E
:101F20003181820F931F2091FA033091FB03281710
:101F3000390779F5F093FB03E093FA0371C0D801F8
:101F400040E050E0AE17BF0750F412962D913C913F
:101F50001397AD012115310509F1D901F3CF9D0189
:101F6000DA013383228360817181860F971F821784
:101F7000930769F4EC0128813981260F371F2E5F02
:101F80003F4F318320838A819B8193838283452BBA
:101F900029F4F093FD03E093FC0342C01396FC93F5
:101FA000EE931297ED01499159919E01240F351F2F
:101FB000E217F30771F480819181840F951F0296D7
:101FC00011969C938E938281938113969C938E930A
:101FD0001297E0E0F0E0D80112968D919C91139752
:101FE000009719F0F8018C01F6CF8D919C91980122
:101FF0002E5F3F4F820F931F2091FA033091FB0316
:102000002817390769F4309729F41092FD031092CC
:10201000FC0302C0138212821093FB030093FA03A5
:10202000DF91CF911F910F91089581E090E0F89496
:082030000C941A10F894FFCF84
:102038000000FE03800000C0C101C30302C2C6063F
:1020480007C705C5C404CC0C0DCD0FCFCE0E0ACAE8
:10205800CB0BC90908C8D81819D91BDBDA1A1EDE38
:10206800DF1FDD1D1CDC14D4D515D71716D6D212E8
:1020780013D311D1D010F03031F133F3F23236F6F8
:10208800F737F53534F43CFCFD3DFF3F3EFEFA3AA8
:102098003BFB39F9F83828E8E929EB2B2AEAEE2E38
:1020A8002FEF2DEDEC2CE42425E527E7E62622E2A8
:1020B800E323E12120E0A06061A163A3A26266A6F8
:1020C800A767A56564A46CACAD6DAF6F6EAEAA6A68
:1020D8006BAB69A9A86878B8B979BB7B7ABABE7EB8
:1020E8007FBF7DBDBC7CB47475B577B7B67672B268
:1020F800B373B17170B050909151935352929656F8
:102108005797559594549C5C5D9D5F9F9E5E5A9A27
:102118009B5B99595898884849894B8B8A4A4E8EB7
:102128008F4F8D4D4C8C4484854587474686824227
:1021380043834181804000C1814001C0804101C08A
:10214800804100C1814001C0804100C1814000C17F
:10215800814001C0804101C0804100C1814000C16F
:10216800814001C0804100C1814001C0804101C05F
:10217800804100C1814001C0804100C1814000C14F
:10218800814001C0804100C1814001C0804101C03F
:10219800804100C1814000C1814001C0804101C02F
:1021A800804100C1814001C0804100C1814000C11F
:1021B800814001C0804101C0804100C1814000C10F
:1021C800814001C0804100C1814001C0804101C0FF
:1021D800804100C1814000C1814001C0804101C0EF
:1021E800804100C1814001C0804100C1814000C1DF
:1021F800814001C0804100C1814001C0804101C0CF
:10220800804100C1814001C0804100C1814000C1BE
:10221800814001C0804101C0804100C1814000C1AE
:10222800814001C0804100C1814001C0804101C09E
:10223800804100C181405E00BC00770100000000C1
:0C224800750159043E011C013001BC016D
:00000001FF
