:100000000C94F2000C941A010C941A010C941A012D
:100010000C941A010C941A010C941A010C941A01F4
:100020000C941A010C941A010C941A010C941A01E4
:100030000C941A010C941A010C941A010C941A01D4
:100040000C9433030C941A010C9434020C940E0299
:100050000C941A010C941A010C941A010C941A01B4
:100060000C941A010C941A01590AC10A93092F0B16
:10007000860B7709450C450C450C450C450C450C89
:10008000450C450CB90BEE09005EBCE2613FDD8317
:10009000C29C7E20A3FD1F419DC3217FFCA2401E68
:1000A0005F01E3BD3E6082DC237D9FC1421CFEA058
:1000B000E1BF5D0380DE3C62BEE0025CDF81633D48
:1000C0007C22C09E1D43A1FF4618FAA427799BC538
:1000D00084DA3866E5BB5907DB856739BAE4065828
:1000E0001947A5FB7826C49A653BD987045AB8E618
:1000F000A7F91B45C6987A24F8A6441A99C7257B08
:100100003A6486D85B05E7B98CD2306EEDB3510FF7
:100110004E10F2AC2F7193CD114FADF3702ECC92E7
:10012000D38D6F31B2EC0E50AFF1134DCE90722CD7
:100130006D33D18F0C52B0EE326C8ED0530DEFB1C7
:10014000F0AE4C1291CF2D73CA947628ABF51749B7
:100150000856B4EA6937D58B5709EBB536688AD4A7
:1001600095CB2977F4AA4816E9B7550B88D6346A97
:100170002B7597C94A14F6A8742AC896154BA9F787
:10018000B6E80A54D7896B35000000002400270028
:100190002A0000000000250028002B0000000008B5
:1001A000000201000003040700000000000000003E
:1001B00000000000230026002900040404040404B5
:1001C0000404020202020202030303030303010206
:1001D00004081020408001020408102001020408D5
:1001E00010205E0D11241FBECFEFD8E0DEBFCDBFC3
:1001F00013E0A0E0B1E0E0EFF0E202C005900D9264
:10020000AC31B107D9F723E0ACE1B3E001C01D92F6
:10021000AE3FB207E1F710E0C2EFD0E004C0219793
:10022000FE010E94F90DC13FD107C9F70E94EB06FC
:100230000C9476100C940000FC01918D828D98171F
:1002400061F0828DDF01A80FB11D5D968C91928DBA
:100250009F5F9F73928F90E008958FEF9FEF0895B7
:10026000FC01918D828D981731F0828DE80FF11D80
:10027000858D90E008958FEF9FEF0895FC01918D9B
:10028000228D892F90E0805C9F4F821B91098F7394
:100290009927089585E293E00E943E0121E0892B91
:1002A00009F420E0822F0895FC01848DDF01A80F5E
:1002B000B11DA35ABF4F2C91848D90E001968F738E
:1002C0009927848FA689B7892C93A089B1898C91AD
:1002D00080648C93938D848D981306C00288F38973
:1002E000E02D80818F7D80830895EF92FF920F93A0
:1002F0001F93CF93DF93EC0181E0888F9B8D8C8DD2
:10030000981305C0E889F989808185FD24C0F62EFF
:100310000B8D10E00F5F1F4F0F731127E02E8C8D98
:10032000E8120CC00FB607FCFACFE889F989808182
:1003300085FFF5CFCE010E945401F1CF8B8DFE01D8
:10034000E80FF11DE35AFF4FF0820B8FEA89FB891A
:100350008081806207C0EE89FF896083E889F9891E
:1003600080818064808381E090E0DF91CF911F9154
:100370000F91FF90EF900895CF93DF93EC01888D5C
:100380008823C9F0EA89FB89808185FD05C0A88999
:10039000B9898C9186FD0FC00FB607FCF5CF80811F
:1003A00085FFF2CFA889B9898C9185FFEDCFCE0169
:1003B0000E945401E7CFDF91CF91089580E090E053
:1003C000892B29F00E944A0181110C9400000895A4
:1003D0003FB7F8948091210390912203A0912303C9
:1003E000B091240326B5A89B05C02F3F19F00196B4
:1003F000A11DB11D3FBFBA2FA92F982F8827820FAB
:10040000911DA11DB11DBC01CD0142E0660F771FFA
:10041000881F991F4A95D1F7089508951F920F924A
:100420000FB60F9211242F933F934F935F936F93C7
:100430007F938F939F93AF93BF93EF93FF9385E247
:1004400093E00E945401FF91EF91BF91AF919F9172
:100450008F917F916F915F914F913F912F910F906D
:100460000FBE0F901F9018951F920F920FB60F920C
:1004700011242F938F939F93EF93FF93E091350374
:10048000F09136038081E0913B03F0913C0382FDC3
:1004900012C0908180913E038F5F8F7320913F0344
:1004A000821751F0E0913E03F0E0EB5DFC4F958F39
:1004B00080933E0301C08081FF91EF919F918F91C6
:1004C0002F910F900FBE0F901F90189590E0FC0198
:1004D000E456FE4F3491FC01E253FE4F2491FC019F
:1004E000E654FE4FE491EE2309F43BC0332339F187
:1004F000333091F038F43130A9F0323001F584B561
:100500008F7D12C0373091F03830A1F03430B9F41B
:10051000809180008F7D03C0809180008F778093D1
:1005200080000DC084B58F7784BD09C08091B00074
:100530008F7703C08091B0008F7D8093B000F0E092
:10054000EE0FFF1FEE56FE4FA591B4918FB7F894B2
:10055000EC91611103C020952E2301C02E2B2C930A
:100560008FBF0895CF93DF9390E0FC01E253FE4FDD
:100570002491FC01E654FE4F8491882361F190E0C0
:10058000880F991FFC01E857FE4FC591D491FC01DB
:10059000EE56FE4FA591B491611109C09FB7F89432
:1005A0008881209582238883EC912E230BC06230B2
:1005B00061F49FB7F8943881822F809583238883D4
:1005C000EC912E2B2C939FBF06C08FB7F894E88137
:1005D0002E2B28838FBFDF91CF9108958230910514
:1005E00038F0880F991F880F991F05970197F1F729
:1005F00008958F929F92AF92BF92CF92DF92EF9227
:10060000FF926B017C010E94E8014B015C01C11467
:10061000D104E104F104F1F00E94E801DC01CB0116
:1006200088199909AA09BB09883E9340A105B1051B
:1006300070F321E0C21AD108E108F10888EE880EB3
:1006400083E0981EA11CB11CC114D104E104F10483
:1006500019F7DDCFFF90EF90DF90CF90BF90AF9074
:100660009F908F9008951F920F920FB60F921124B2
:100670002F933F938F939F93AF93BF9380911C03CE
:1006800090911D03A0911E03B0911F033091200390
:1006900023E0230F2D3720F40196A11DB11D05C0C5
:1006A00026E8230F0296A11DB11D209320038093FD
:1006B0001C0390931D03A0931E03B0931F0380910E
:1006C000210390912203A0912303B091240301966A
:1006D000A11DB11D8093210390932203A0932303B6
:1006E000B0932403BF91AF919F918F913F912F9130
:1006F0000F900FBE0F901F901895DC01E0E0615045
:1007000038F08D91E827F0E0E857FF4FE491F7CFFC
:100710008E2F0895FC0190810180F281E02DF894E4
:100720008181892B81832281892F809528232283AF
:10073000A7E0B0E01197F1F7218182238183A3E242
:10074000B0E01197F1F780817894EFECF0E0319709
:10075000F1F7982381E009F480E00895FC0190818D
:100760000180F281E02D892F809560FF12C0F894FE
:100770002281822382838181892B8183A3E2B0E05D
:100780001197F1F78281982B9283789487ED90E00E
:1007900011C0F8942281822382838181892B8183F5
:1007A000AFEFB0E01197F1F78281982B92837894A4
:1007B0008FE090E00197F1F70895CF92DF92EF92EA
:1007C000FF920F931F93CF93DF931F92CDB7DEB7A6
:1007D0006C01E62E08E010E0FF24F39461E08F2D19
:1007E0008E2109F460E0C60149830E94AE03FF0C2C
:1007F0000150110949810115110581F7411115C0F9
:10080000F894D6011196ED91FC91129791818C91FB
:100810008095892381831196ED91FC9112979281A5
:100820008C9180958923828378940F90DF91CF916A
:100830001F910F91FF90EF90DF90CF900895CF928E
:10084000DF92EF92FF920F931F93CF93DF931F924C
:10085000CDB7DEB78C01F62E40E065E579830E94C6
:10086000DD03CF2C7981D72E760188E0E80EF11CCC
:10087000F60161916F0140E0C8010E94DD03CE14D2
:10088000DF04B1F70F90DF91CF911F910F91FF908F
:10089000EF90DF90CF900895FC0190810180F2816C
:1008A000E02DF8948181292F2095822381837894EB
:1008B0008DE743E050E0815021F1DA011197F1F723
:1008C00030813923C1F3F89482818223828381812C
:1008D000892B81837894ABE7B7E01197F1F7F8940F
:1008E000818128232183A3E1B1E01197F1F7808171
:1008F000982381E009F080E07894E3E6F6E0319710
:10090000F1F70895DC01ED91FC91309749F0808179
:1009100091818617970739F00480F581E02DF5CF96
:1009200080E090E00895CF0108950E94820400972E
:1009300021F0FC0182819381089580E090E0089588
:10094000CF92DF92EF92FF920F931F93CF93DF939B
:100950006C017A018B01C0E0D0E0CE15DF0589F093
:10096000D8016D918D01D601ED91FC910190F0813E
:10097000E02DC6010995892B11F47E0102C0219654
:10098000ECCFC701DF91CF911F910F91FF90EF90B6
:10099000DF90CF900895AF92BF92CF92DF92EF9207
:1009A000FF920F931F93CF93DF938B01BC01809134
:1009B000DE039091DF030E941F0440E06EEB809104
:1009C000DE039091DF030E94DD03E801680189E006
:1009D000C80ED11CA090DE03B090DF0388E0E82EA3
:1009E000F12C01E010E0C5010E948A038111102B57
:1009F000000F81E0E81AF108B1F71993CC15DD0575
:100A000049F78091DE039091DF030E944C0491E04E
:100A1000813009F090E0892FDF91CF911F910F91E4
:100A2000FF90EF90DF90CF90BF90AF9008950E941D
:100A30007110AF92BF92CF92DF92EF92FF920F931D
:100A40001F93CF93DF931F92CDB7DEB75C01D62EF5
:100A5000E72EFC018585811105C0C5010E944C046B
:100A6000811106C0F50113861586148680E065C0E5
:100A700040E060EFC5010E94DD0301E0F12CC12CD4
:100A800011E0C5010E948A03682FC50169830E9495
:100A90008A036981613019F48130B9F433C04F2D74
:100AA00050E068131BC0F5018385181730F4E40F7C
:100AB000F51F8381802349F402C0181731F060E0EC
:100AC000193058F4F501148708C0F501EF0DF11D38
:100AD0008381802B838361E009C0C12EF501E40F7F
:100AE000F51F9381802F809589238383C5010E9400
:100AF000AE031F5F000F11F4F39401E0F7E0FF1560
:100B000008F0BFCF113408F4ADCFF501C386C11092
:100B100002C081E08587F5018381882309F4A2CF93
:100B2000D5011396ED2DFE2D9501255F3F4F8D913B
:100B30008193A217B307D9F781E00F90DF91CF918E
:100B40001F910F91FF90EF90DF90CF90BF90AF90EB
:100B500008950F931F93CF93DF93CDB7DEB72997F7
:100B60000FB6F894DEBF0FBECDBFFC01208120314F
:100B700061F18C018091DE039091DF030E944C04AF
:100B8000882309F1BE016F5F7F4FC8010E94CB042B
:100B90008823C9F068E0CE0101960E947D03998503
:100BA000891311C08D818F3361F020F48F3159F496
:100BB00089E00CC08F3519F08F3739F004C08BE015
:100BC00005C08AE003C080E001C08CE029960FB622
:100BD000F894DEBF0FBECDBFDF91CF911F910F9173
:100BE00008950F931F93CF93DF938C01EB0186E061
:100BF00090E00E94440FFC0111830083D383C283E1
:100C0000158214828091C2039091C303892B29F429
:100C1000F093C303E093C20308C0A091C403B09152
:100C2000C5031596FC93EE931497F093C503E093D8
:100C3000C403DF91CF911F910F910895EF92FF921E
:100C40001F93CF93DF931F92CDB7DEB7182F82EC9F
:100C5000E82E83E0F82ED70114968D919C9115977C
:100C600069830E94D90F82E0F701868382E090E0D9
:100C70000E94440FFC01D70115969C938E93149704
:100C8000105810836981618383E017968C930F90CD
:100C9000DF91CF911F91FF90EF9008950F931F93D5
:100CA000CF93DF93CDB7DEB761970FB6F894DEBF71
:100CB0000FBECDBF082FE091DE03F091DF03138656
:100CC00015861486DF011B9633961E92AE17BF075A
:100CD000E1F710E0BE01665F7F4F8091DE039091E7
:100CE000DF030E941905882369F0101308C067E02C
:100CF000CE010A960E947D039989891741F01F5FF2
:100D0000011740F760E070E08EEF92EC59C08091DF
:100D1000DE039091DF030E944C048823F1F1BE01B1
:100D20006F5F7F4FCE010A960E94CB048823A9F102
:100D300068E0CE0101960E947D03998589132DC03C
:100D4000698148E0649FB00111248A81282F30E036
:100D5000322F2227330F330F330F262B372B8A8561
:100D60008031C9F4688570E08F81AB01481B51095F
:100D7000CA019695982F8827979587950E94E50D2B
:100D800060517109207F53E0220F331F5A95E1F71C
:100D9000620F731F04C0B90102C060E874EE6138CD
:100DA00054EE75070CF4AECF072E000C880B990B90
:100DB0000E944B0E20E030E040E05CE30E94AF0E6A
:100DC00061960FB6F894DEBF0FBECDBFDF91CF9115
:100DD0001F910F910895CF93DF93CDB7DEB7619741
:100DE0000FB6F894DEBF0FBECDBF789484B5826095
:100DF00084BD84B5816084BD85B5826085BD85B5BF
:100E0000816085BD80916E00816080936E0010923C
:100E100081008091810082608093810080918100B7
:100E20008160809381008091800081608093800048
:100E30008091B10084608093B1008091B0008160A6
:100E40008093B00080917A00846080937A008091D2
:100E50007A00826080937A0080917A00816080932A
:100E60007A0080917A00806880937A001092C100A5
:100E700085E293E09093CB038093CA038FEF9FEFBB
:100E80009093D3038093D203E0913503F09136031E
:100E900082E08083E0913103F09132031082E0918F
:100EA0003303F091340387E6808310923D03E09191
:100EB0003903F0913A0386E08083E0913703F091A3
:100EC0003803808180618083E0913703F09138039B
:100ED000808188608083E0913703F09138038081BE
:100EE00080688083E0913703F091380380818F7DA3
:100EF000808360ED77E080E090E00E94F9028DE071
:100F000093E09093D5038093D4038EE197E0909380
:100F1000D7038093D6038AE08093D80360E070E023
:100F200085E995E70E94F10560E070E086E995E7C4
:100F30000E94F10560E070E083E390E00E94F1051B
:100F400060E070E084E390E00E94F105E091DE0350
:100F5000F091DF03138615861486DF011B96339606
:100F60001E92AE17BF07E1F71092DD0311E0BE013C
:100F70006F5F7F4F8091DE039091DF030E94190520
:100F8000882309F44AC067E0CE0101960E947D03E0
:100F900098858913ECCF8091D903811127C0809166
:100FA000DE039091DF030E944C04BE016F5F7F4F10
:100FB0008091DE039091DF030E941F0440E064EB08
:100FC0008091DE039091DF030E94DD038091DE03B8
:100FD0009091DF030E948A03082F8091DE03909195
:100FE000DF030E944C04002309F437C10091DA03A7
:100FF000CE0101960E94A905801718F48091DA03AA
:1010000004C0CE0101960E94A9058093DA03809165
:10101000DD038F5F8093DD03AACF61E08BE00E9448
:10102000B20261E08CE00E94B202412C512C3201EC
:1010300043948091DE039091DF030E944C0440E0D2
:101040006CEC8091DE039091DF030E94DD03409100
:10105000D90364E48091DE039091DF030E94DD03F5
:101060008091DB03882309F449C0E091DA03E95059
:10107000E33040F4F0E0EE0FFF1FEA5FFE4F6081C7
:10108000718102C06EEE72E08091DC03882381F1F1
:101090008091D90381112CC08FB7F89480901C03E4
:1010A00090901D03A0901E03B0901F038FBF6B0193
:1010B000770FEE08FF088091DE039091DF030E9416
:1010C0008A038130D9F02FB7F89480911C03909156
:1010D0001D03A0911E03B0911F032FBF8C199D0902
:1010E000AE09BF0988159905AA05BB0520F306C0FE
:1010F000072E000C880B990B0E94F90280E00E94D9
:101100004E064B015C0181E00E944E066C877D8794
:101110008E879F871092C8038091CA039091CB035A
:10112000DC01ED91FC910480F581E02D0995409161
:10113000C803242F30E028173907A4F48091CA038C
:101140009091CB03DC01ED91FC910480F581E02DC1
:1011500009958093C8038091D4039091D5030E9490
:10116000EE02DACF442309F446C0C9010E94440FBD
:101170009093C7038093C60310E03091C803C090DA
:10118000C603D090C703131788F4C10ED11C8091F9
:10119000CA039091CB03DC01ED91FC910680F781AD
:1011A000E02D0995F60180831F5FE7CFD601BC9142
:1011B000BB87C601830F911DFC0132977081319668
:1011C0006081BF3F09F44CC08091D803B8130BC0B5
:1011D00047C0862F90E0FC01F72B50E0522BE4171C
:1011E000F50709F460C08091C6039091C7030E947F
:1011F000D90F1092C803C501B4010E94130E6B01F0
:101200007C0165E975E782EC93E00E948204009717
:1012100019F0FC01D382C2826C857D858E859F8505
:101220000E94130E6B017C0166E975E782EC93E086
:101230000E948204009729F0DC011396DC92CE9282
:10124000129763E370E082EC93E00E9495048115AD
:101250009F4F09F01DC460E01CC41093D903C6CE93
:101260003350C60101969A8789874B85409550E097
:10127000FA01E45FFD4F20812095FA01E45FFE4F03
:101280004081FC01315008F4A4CF81912827822F9E
:1012900090E0DC01A45FBD4F2C912427DC01A45F0A
:1012A000BE4F4C91EFCFD60111968C9111971296AB
:1012B000EC901297F12CFE2CEE2413969C91139730
:1012C0001701292A14960C91149710E0102F00276B
:1012D00015969C91092B482F50E0FA013197E03187
:1012E000F10508F0D2C2EC5CFF4F0C94F90D7101CE
:1012F000BFEBEB1AB3E6FB0AB70182EC93E00E9466
:101300008204009709F4CCC2FC0113830283B70165
:1013100082EC93E00E9495048017910711F064E03D
:10132000C0C282E058C0C80101978D37910510F006
:1013300063E00CC0FFEB2F1AF3E63F0AB10182EC29
:1013400093E00E948204892B19F462E083E09EC23C
:10135000C6010E94D90FC8010196F82EFF0CF09229
:10136000C8038F2D90E00E94440F9093C703809391
:10137000C603009711F464E0E9CF23E0DC012C936D
:10138000FA94FA941196FC9263E0C62ED12CE12CCB
:10139000F12CB1016E0D7F1D82EC93E00E9495044B
:1013A000BFEFEB1AFB0A9701220F331FE091C60330
:1013B000F091C703E20FF31F9083E091C603F09111
:1013C000C703EC0DFD1D8083E2E0CE0ED11CE016BC
:1013D000F106F9F683E08093C9035AC2D601169646
:1013E0008C919801215031092B37310578F490E028
:1013F0009801220F331F8217930741F4E12CF12C3F
:1014000091012F5B33463A87298708C063E024C0E7
:101410003FEFE31AF30AE016F10661F069857A8579
:101420006E0D7F1D82EC93E00E948204892B81F770
:1014300062E012C0C6010E94D90F45E04093C80384
:1014400085E090E00E94440FFC019093C7038093D5
:10145000C603892B19F464E080E118C280E180831F
:10146000318222821382048368E0C60ED11CE12CF3
:10147000F12CF60131972080312C322C2224D60118
:101480008C91282A69857A856E0D7F1D82EC93E008
:101490000E948204009719F0FC0133822282FFEF40
:1014A000EF1AFF0A22E0C20ED11CE016F10609F77E
:1014B00091CFC8010197803D974010F063E02BC0A9
:1014C000B1016F5F7F4F82EC93E00E948204892B11
:1014D00011F462E020C0C6010E94D90FC801B3E038
:1014E00096958795BA95E1F7980127703327232BB6
:1014F00011F48E5F01C08D5F8093C803F090C80324
:101500008F2D90E00E94440F9093C7038093C603F1
:10151000009719F464E081E0B9C121E0DC012C936B
:10152000FA94FA941196FC927801BFEFEB1AFB0A39
:1015300001E010E0D12CB801620D731D82EC93E044
:101540000E949504E091C603F091C7039801A3E0BF
:1015500036952795AA95E1F72E5F3F4F81159F4F4E
:1015600009F0A1C1E20FF31F2081D301C2010D2CAC
:1015700004C0880F991FAA1FBB1F0A94D2F7822BA1
:10158000A1C1C8010197803D974010F063E02AC0D7
:10159000B1016F5E784D82EC93E00E948204892B4A
:1015A00009F497CFC6010E94D90FC80173E0969540
:1015B00087957A95E1F7980127703327232B11F44B
:1015C0008E5F01C08D5F8093C803F090C8038F2D9C
:1015D00090E00E94440F9093C7038093C603009746
:1015E00019F464E082E052C122E0FC012083FA9405
:1015F000FA94F18298012F5F3F4FD12C01E010E067
:101600007101F0EFEF1AF8EDFF0AB701600F711FDB
:1016100082EC93E0288B398B0E949504E091C603FD
:10162000F091C703A80163E0569547956A95E1F7E5
:101630004E5F5F4F2889398981159F4F09F04FC14F
:10164000E40FF51F4081D301C2010D2C04C0880FA7
:10165000991FAA1FBB1F0A94D2F7842B4FC1C80140
:1016600001978D37910510F063E020C09FEC291A97
:101670009AE8390AB10182EC93E00E948204892B36
:1016800009F427CFC6010E94D90FC8010196F82E90
:10169000FF0CF092C8038F2D90E00E94440F9093AE
:1016A000C7038093C603009719F464E084E0EEC09A
:1016B00024E0DC012C93FA94FA941196FC92E12C2C
:1016C000F12C53E0C52ED12CB1016E0D7F1D82ECA3
:1016D00093E00E949504BFEFEB1AFB0A9701220FDB
:1016E000331FE091C603F091C703E20FF31F90830D
:1016F000E091C603F091C703EC0DFD1D8083E2E08D
:10170000CE0ED11CE016F106F9F664CE0115FFEFFE
:101710001F0729F00115110511F063E0FDC0DD245C
:10172000D394012B21F4D12C00E010E002C000E0A2
:101730001FEF71012FEFE21AF20AB70182EC93E07A
:101740000E948204009709F4E6C0DC0113961C9302
:101750000E931297B70182EC93E00E94950421E06A
:1017600081159F4F09F020E02D1509F4DACD64E0D2
:10177000D3C0F6012681C80133E0969587953A9546
:10178000E1F7A80147705527452B09F00196A801FC
:1017900041505109403B574050F430E02817390779
:1017A00031F4E12CF12C91012F5F3F4F08C063E031
:1017B00027C04FEFE41AF40AE016F10679F0B901F8
:1017C0006E0D7F1D82EC93E0288B398B0E94820482
:1017D00028893989892B69F762E012C0C6010E9405
:1017E000D90F65E06093C80385E090E00E94440F44
:1017F000FC019093C7038093C603892B19F464E01E
:101800008FE044C08FE0808331822282F382E482C1
:1018100097012F5F3F4FD12C01E010E0F80193E0DA
:10182000F695E7959A95E1F789859A85E80FF91F6E
:10183000868190E00D2C02C0959587950A94E2F779
:1018400080FD03C0E12CF12C03C0E12CFF24FA94AD
:10185000B801620D731D82EC93E0288B398B0E94D6
:10186000820428893989009729F0DC011396FC92BB
:10187000EE921297D394B8E0DB1201C0D12C0F5F27
:101880001F4F0217130751F6A5CD61E00E941E06F7
:101890002B852F3F09F042C081E08093C9033EC0F1
:1018A00062E086E0F3CFE20FF31FD301C2010D2CFB
:1018B00004C0880F991FAA1FBB1F0A94D2F78095F6
:1018C000908189238083D39468E0D61201C0D12C03
:1018D0000F5F1F4F0E151F0509F02DCE7BCDE40FB6
:1018E000F51FD301C2010D2C04C0880F991FAA1F38
:1018F000BB1F0A94D2F78095908189238083D3946B
:1019000088E0D81201C0D12C0F5F1F4F02171307B8
:1019100009F07BCE5FCD62E085E0B8CF8091C9034E
:101920000091C6031091C703833009F075C0809100
:10193000D2039091D30397FD09C061E00E94660233
:1019400061E070E080E090E00E94F9028091CA03BB
:101950009091CB03DC01ED91FC910190F081E02DA1
:101960006091D8030995F12C4091C803F41688F4CE
:101970008091CA039091CB03DC01ED91FC91D801D9
:10198000AF0DB11D0190F081E02D6C910995F3949C
:10199000EBCF2091D803209530E0F901E45FFD4FB3
:1019A00050815095F901E45FFE4F0081E091C6033C
:1019B000F091C703415070F081915827852F90E036
:1019C000DC01A45FBD4F5C915027DC01A45FBE4FDA
:1019D0000C91F0CF10E0152B8091CA039091CB03AE
:1019E000DC01ED91FC910190F081E02D612F0995D2
:1019F0008091CA039091CB03DC01ED91FC910190A1
:101A0000F081E02D602F09958091CA039091CB035E
:101A1000DC01ED91FC9128C0823009F0E4CB80918B
:101A2000D2039091D30397FD09C061E00E94660242
:101A300061E070E080E090E00E94F902F12C2091DA
:101A4000C8038091CA039091CB03DC01ED91FC9116
:101A5000F21650F4D801AF0DB11D0190F081E02DC8
:101A60006C910995F394EBCF0284F385E02D0995F1
:101A70008091D6039091D7030E94EE028091D20309
:101A80009091D30397FDAFCB60E00E946602ABCB91
:101A900061E08BE00E94660264E370E082EC93E018
:101AA0000E94950481159F4F11F460E001C061E030
:101AB0008CE00E9466020E94DE01BBCA10922803DD
:101AC0001092270388EE93E0A0E0B0E08093290312
:101AD00090932A03A0932B03B0932C0380E193E00F
:101AE000909326038093250385EC90E09093320336
:101AF0008093310384EC90E090933403809333031C
:101B000080EC90E0909336038093350381EC90E075
:101B1000909338038093370382EC90E090933A03DC
:101B20008093390386EC90E090933C0380933B03D1
:101B300010923E0310923F03109240031092410313
:101B400060E083E00E94B202E1EDF1E0E491E09315
:101B5000EC03EDEBF1E0E491F0E0EE0FFF1FE05558
:101B6000FE4F859194919093EE038093ED03109234
:101B7000F7031092F9031092F803E7EFF3E01292E3
:101B800083E0EF3EF807D9F78DE092E09093EB0306
:101B90008093EA038CEE93E09093DF038093DE035F
:101BA0001092DD031092D90389E08093DA0381E07B
:101BB0008093DB038093DC031092C3031092C20373
:101BC0001092C5031092C403089597FB072E16F4D4
:101BD000009407D077FD09D00E94FF0D07FC05D0C7
:101BE0003EF4909581959F4F0895709561957F4F34
:101BF0000895EE0FFF1F0590F491E02D0994AA1BA4
:101C0000BB1B51E107C0AA1FBB1FA617B70710F0E7
:101C1000A61BB70B881F991F5A95A9F78095909519
:101C2000BC01CD0108950E941A0E6894B1110C9464
:101C3000A90E08950E948E0E88F09F5798F0B92F34
:101C40009927B751B0F0E1F0660F771F881F991FF1
:101C50001AF0BA95C9F714C0B13091F00E94A80EDD
:101C6000B1E008950C94A80E672F782F8827B85FED
:101C700039F0B93FCCF3869577956795B395D9F749
:101C80003EF490958095709561957F4F8F4F9F4F53
:101C90000895E89409C097FB3EF49095809570955F
:101CA00061957F4F8F4F9F4F9923A9F0F92F96E9A8
:101CB000BB279395F695879577956795B795F1111D
:101CC000F8CFFAF4BB0F11F460FF1BC06F5F7F4FBA
:101CD0008F4F9F4F16C0882311F096E911C07723CC
:101CE00021F09EE8872F762F05C0662371F096E8D5
:101CF000862F70E060E02AF09A95660F771F881FA4
:101D0000DAF7880F9695879597F9089557FD9058BB
:101D1000440F551F59F05F3F71F04795880F97FBAF
:101D2000991F61F09F3F79F0879508951216130669
:101D30001406551FF2CF4695F1DF08C01616170698
:101D40001806991FF1CF86957105610508940895CD
:101D5000E894BB2766277727CB0197F908950E945F
:101D6000C20E0C94330F0E94250F38F00E942C0FE6
:101D700020F0952311F00C941C0F0C94220F1124C9
:101D80000C94A90E0E94860E70F3959FC1F3950FD7
:101D900050E0551F629FF001729FBB27F00DB11DEF
:101DA000639FAA27F00DB11DAA1F649F6627B00D7F
:101DB000A11D661F829F2227B00DA11D621F739F68
:101DC000B00DA11D621F839FA00D611D221F749F76
:101DD0003327A00D611D231F849F600D211D822FBD
:101DE000762F6A2F11249F5750409AF0F1F08823E4
:101DF0004AF0EE0FFF1FBB1F661F771F881F915011
:101E00005040A9F79E3F510580F00C941C0F0C9494
:101E1000A90E5F3FE4F3983ED4F3869577956795D6
:101E2000B795F795E7959F5FC1F7FE2B880F911D3A
:101E30009695879597F9089597F99F6780E870E0E0
:101E400060E008959FEF80EC089500240A94161630
:101E5000170618060906089500240A941216130698
:101E6000140605060895092E0394000C11F4882326
:101E700052F0BB0F40F4BF2B11F460FF04C06F5F42
:101E80007F4F8F4F9F4F0895CF93DF9382309105FF
:101E900010F482E090E0E091FC03F091FD0320E07B
:101EA00030E0C0E0D0E0309711F140815181481717
:101EB0005907C0F04817590761F482819381209730
:101EC00019F09B838A832BC09093FD038093FC03BE
:101ED00026C02115310519F04217530718F49A014D
:101EE000BE01DF01EF010280F381E02DDCCF21157F
:101EF000310509F1281B390B2430310590F4129675
:101F00008D919C9113976115710521F0FB019383CD
:101F1000828304C09093FD038093FC03FD013296FD
:101F200044C0FD01E20FF31F8193919322503109C8
:101F30002D933C933AC02091FA033091FB03232B5D
:101F400041F420910201309103013093FB0320936F
:101F5000FA0320910001309101012115310541F46E
:101F60002DB73EB74091040150910501241B350B5C
:101F7000E091FA03F091FB03E217F307A0F42E1BA4
:101F80003F0B2817390778F0AC014E5F5F4F2417DD
:101F9000350748F04E0F5F1F5093FB034093FA0341
:101FA0008193919302C0E0E0F0E0CF01DF91CF9107
:101FB00008950F931F93CF93DF93009709F48CC07C
:101FC000FC013297138212820091FC031091FD03F1
:101FD0000115110581F420813181820F931F209119
:101FE000FA033091FB032817390779F5F093FB03C7
:101FF000E093FA0371C0D80140E050E0AE17BF078C
:1020000050F412962D913C911397AD012115310595
:1020100009F1D901F3CF9D01DA0133832283608175
:102020007181860F971F8217930769F4EC0128814D
:102030003981260F371F2E5F3F4F318320838A81DE
:102040009B8193838283452B29F4F093FD03E093D6
:10205000FC0342C01396FC93EE931297ED01499155
:1020600059919E01240F351FE217F30771F4808107
:102070009181840F951F029611969C938E93828175
:10208000938113969C938E931297E0E0F0E0D80131
:1020900012968D919C911397009719F0F8018C017D
:1020A000F6CF8D919C9198012E5F3F4F820F931F29
:1020B0002091FA033091FB032817390769F4309710
:1020C00029F41092FD031092FC0302C013821282C5
:1020D0001093FB030093FA03DF91CF911F910F91AF
:1020E000089581E090E0F8940C947610F894FFCF76
:1020F0000000FE0380005E00BC00770100C0C1014B
:10210000C30302C2C60607C705C5C404CC0C0DCD67
:102110000FCFCE0E0ACACB0BC90908C8D81819D9D7
:102120001BDBDA1A1EDEDF1FDD1D1CDC14D4D51507
:10213000D71716D6D21213D311D1D010F03031F1F7
:1021400033F3F23236F6F737F53534F43CFCFD3D27
:10215000FF3F3EFEFA3A3BFB39F9F83828E8E92917
:10216000EB2B2AEAEE2E2FEF2DEDEC2CE42425E5C7
:1021700027E7E62622E2E323E12120E0A06061A137
:1021800063A3A26266A6A767A56564A46CACAD6DE7
:10219000AF6F6EAEAA6A6BAB69A9A86878B8B97957
:1021A000BB7B7ABABE7E7FBF7DBDBC7CB47475B587
:1021B00077B7B67672B2B373B17170B05090915177
:1021C0009353529296565797559594549C5C5D9DA7
:1021D0005F9F9E5E5A9A9B5B995958988848498997
:1021E0004B8B8A4A4E8E8F4F8D4D4C8C4484854547
:1021F00087474686824243834181804000C18140B7
:1022000001C0804101C0804100C1814001C08041C6
:1022100000C1814000C1814001C0804101C08041B6
:1022200000C1814000C1814001C0804100C18140A6
:1022300001C0804101C0804100C1814001C0804196
:1022400000C1814000C1814001C0804100C1814086
:1022500001C0804101C0804100C1814000C1814076
:1022600001C0804101C0804100C1814001C0804166
:1022700000C1814000C1814001C0804101C0804156
:1022800000C1814000C1814001C0804100C1814046
:1022900001C0804101C0804100C1814000C1814036
:1022A00001C0804101C0804100C1814001C0804126
:1022B00000C1814000C1814001C0804100C1814016
:1022C00001C0804101C0804100C1814001C0804106
:1022D00000C1814000C1814001C0804101C08041F6
:1022E00000C1814000C1814001C0804100C18140E6
:1022F00001C0804101C0804100C181400000000058
:0C2300007501A0043E011C013001BC016D
:00000001FF
